:020000040800F2
:10000000781900209D010008A13B0008352F000849
:100010009D3B00084D080008DD510008000000006D
:10002000000000000000000000000000D14A0008AD
:100030006908000800000000CD4A0008D54A000801
:10004000B7010008B7010008B7010008B7010008B0
:10005000B7010008B7010008B7010008B7010008A0
:10006000B7010008B7010008B7010008B701000890
:10007000B7010008B7010008B7010008B701000880
:10008000B7010008B7010008B7010008B701000870
:10009000B7010008B7010008B7010008B701000860
:1000A000B7010008B7010008B7010008B701000850
:1000B000B7010008B7010008B7010008B701000840
:1000C000B7010008B7010008B7010008B701000830
:1000D000B7010008D1510008B7010008B7010008B6
:1000E000B7010008B7010008B7010008A14B0008DC
:1000F000B7010008B7010008B7010008B701000800
:10010000B7010008B7010008954B0008B7010008C7
:10011000B7010008B7010008B7010008B7010008DF
:10012000B7010008B701000851080008B70100082E
:10013000B7010008B7010008B7010008B7010008BF
:10014000B7010008B7010008B7010008B7010008AF
:10015000B7010008B70100085D080008B7010008F2
:10016000B7010008B7010008B7010008B70100088F
:10017000B7010008B7010008B7010008000000003F
:10018000B7010008B7010008DFF80CD000F046FB0B
:100190000048004729580008781900200648804781
:1001A00006480047FEE7FEE7FEE7FEE7FEE7FEE75C
:1001B000FEE7FEE7FEE7FEE7814B00088901000845
:1001C0002DE9F05F0546002092469B46884606468C
:1001D000814640241BE0284641464746224600F01F
:1001E00036FA53465A46C01A914110D31146184662
:1001F000224600F01DFA2D1A67EB01084F462246F1
:100200000120002100F014FA17EB00094E41201ED6
:10021000A4F10104DFDC484631462A464346BDE8E6
:10022000F09FD2B201E000F8012B491EFBD27047CB
:100230000022F6E710B513460A4604461946FFF7B2
:10024000F0FF204610BD2DE9FE4F804681EA0300F5
:10025000C00F0C46009021F0004123F00045B8EBA0
:100260000200A94105D24046214690461C460B4655
:10027000024623F00040104347D0270DC7F30A0081
:10028000C3F30A510290401A019040286BDAC3F37D
:10029000130040F4801B0098924620B10023D2EB5B
:1002A000030A63EB0B0B01985946C0F1400250461C
:1002B00000F0BEF906460D4650465946019A00F038
:1002C000D6F910EB08006141002487EA115284EA54
:1002D000E7731A4340D0009A62B3019A012A4FEAA9
:1002E000075215DC001B61EB02014FF0004202EAED
:1002F0000752CDE90042001C41F5801132462B46E1
:1003000000F00DFA03B0BDE8F08F40462146F9E752
:10031000001B61EB0201001C41F5801300185B41DA
:100320002018A2F5001747EB030140EAD570B61973
:100330006D4111E06D084FEA360645EAC0754FEA97
:100340000752001B61EB0201001C41F580114908B6
:100350004FEA30000019514132462B4603B0BDE848
:10036000F04F00F0CDB90098012240000023D0EBFF
:10037000020263EBE073009821464FEAE074B8EBA9
:10038000000061EB0401E9E783F000435BE781F0E3
:10039000004158E72DE9FE4F81EA030404F00044D0
:1003A00021F0004100944FF0000B23F0004350EA8D
:1003B00001045ED052EA03045BD0C3F30A54C1F3D4
:1003C0000A552C44A4F2F3340194A0FB0254C1F367
:1003D000130141F48011C3F3130343F4801301FBB1
:1003E000024400FB034E840A970A44EA815447EA18
:1003F0008357A4FB076802958D0A05FB07854FEA22
:10040000932C04FB0C542705029D4FEA065847EA3B
:100410001637B5EB08056EEB070C870E920E47EA10
:10042000811742EA8312A7FB0201B6EB0B0164EBD2
:1004300000042B0D43EA0C335E1844EB1C50DA46E3
:100440005146E7FB0201C5F313044FEA0B3343EABD
:1004500014534FEA0432019C43EA0603A4F10C044E
:100460000294009CCDE900B400F059F903B0BDE856
:10047000F08F00200146F9E72DE9F04D81EA0304F1
:1004800004F0004B21F0004514464FF0000A23F021
:10049000004150EA050220D054EA01021DD0C5F304
:1004A0000A570246C5F31303C1F31300C1F30A56FA
:1004B00040F4801543F48013A7EB0608101BD646C2
:1004C00008F2FD3873EB050002D308F1010801E0E2
:1004D00092185B41B8F1000F03DA00200146BDE835
:1004E000F08D00204FF48011064684460EE0171B65
:1004F00073EB050705D3121B63EB050306434CEAB8
:10050000010C49084FEA300092185B4150EA01079C
:10051000EDD152EA030012D082EA040083EA050119
:10052000084305D0101BAB4106D20122002306E090
:1005300000224FF0004302E06FF0010253101AEB6B
:1005400006004CEB085110EB0A0041EB0B01BDE833
:10055000F04D00F0D5B830B5041E71F1000404DB95
:100560004FF00044404264EB0101141E73F100049B
:1005700005DB1C464FF00043524263EB0403101AA4
:100580008B4101D2012030BD002030BD0EB540F2BC
:10059000334102910021CDE900110A460B4600F0DB
:1005A000BEF803B000BD00F0004230F000400AD0B9
:1005B000C10D01F56071C0F3160042EA0151C20895
:1005C00040071143704700200146704701F0004387
:1005D00030B421F0004150EA010206D00A0DA2F524
:1005E0006072C1F31301002A02DC30BC00207047A6
:1005F000440F44EAC104C100E01830BC00EBC25013
:1006000000F047B830B50B460146002020220124F7
:1006100009E021FA02F59D4205D303FA02F5491BD0
:1006200004FA02F52844151EA2F10102F1DC30BDE6
:10063000202A04DB203A00FA02F1002070479140A2
:10064000C2F1200320FA03F3194390407047202A97
:1006500004DB203A21FA02F00021704721FA02F36C
:10066000D040C2F120029140084319467047202A29
:1006700006DBCB17203A41FA02F043EAE07306E0CA
:1006800041FA02F3D040C2F12002914008431946DA
:1006900070470029A8BF7047401C490008BF20F0E0
:1006A0000100704710B4B0FA80FC00FA0CF050EA78
:1006B000010404BF10BC704749B1CCF1200421FAF9
:1006C00004F411FA0CF118BF012121430843A3EBF4
:1006D0000C01CB1D4FEA00614FEA102042BF002001
:1006E00010BC704700EBC35010440029A4BF10BCDD
:1006F0007047401C490008BF20F0010010BC704743
:1007000010B5141E73F1000408DA401C41F1000119
:1007100092185B411A4301D120F0010010BD2DE970
:10072000F04D92469B4611B1B1FA81F202E0B0FA67
:1007300080F220329046FFF77BFF04460F4640EAE6
:100740000A0041EA0B0153465A46084313D01146AA
:1007500053EA010019D0C8F140025046FFF777FF75
:1007600005460E46504659464246FFF761FF08438C
:1007700005D0012004E020463946BDE8F08D002078
:10078000054346EAE0762C4337430A986305E40ABA
:10079000A0EB08000022FD0A44EA47540A3002D5C3
:1007A00000200146E9E7010510196941DDE9084526
:1007B00000196941BDE8F04DA2E7C1F30A52C1F347
:1007C000130140F2FF3341F480119A4202DA002013
:1007D0000146704740F233439A42A2F2334202DCB0
:1007E0005242FFF734BFFFF723BF000030B5041EAD
:1007F00071F1000404DB4FF00044404264EB01015E
:10080000141E73F1000405DB1C464FF000435242F6
:1008100063EB0403994208BF904230BD1CB5094800
:100820000090094801900546009C06E0E06840F011
:10083000010394E8070098471034AC42F6D3FFF761
:10084000A7FC0000CC800008EC800008FEE7000058
:1008500040F2B450C2F2000000F09AB840F21460C6
:10086000C2F2000000F094B870470000F0B581B00B
:100870004EF21805CEF200052E68044600F05EFB2D
:10088000A82104FB01F7BE42044617D200F056FB34
:10089000A042FBD0F01B00F5203000F5825000BFD5
:1008A0002968884213D22968884210D22968884270
:1008B0000DD229688842F3D309E000BFF61B00BFC0
:1008C0002868864203D200F039FBA042F8D001B07C
:1008D000F0BD000072B600BFFEE7000070B5866D87
:1008E000044600F02BFB94F83510022928D1054668
:1008F0002068216C026822F016020260426922F030
:100900008002426109B9A16C19B1016821F00801A6
:100910000160016821F00101016000BF20680068EA
:10092000C00715D000F00AFB401B0628F6D3202094
:100930006065032084F83500002184F8341070BD10
:10094000802060650120002184F8341070BD00BF54
:10095000E06D3F2101FA00F0B060012084F835001D
:100960000020002184F8341070BD000090F835108C
:10097000022909D1052180F835100068016821F0AD
:10098000010101600020704780214165012070470E
:10099000F0B581B00021009140F24801C2F200019F
:1009A0000B68D0E9166148F2B51537680822C1F620
:1009B0004E358A403A42A3FB05350CD003681C68CB
:1009C000640708D51C6824F004041C60B260426D02
:1009D00042F00102426501228A403A4208D003688F
:1009E0005B691B0604D5B260426D42F002024265AB
:1009F00004228A403A4208D003681B689B0704D54A
:100A0000B260426D42F00402426510228A403A42CE
:100A100019D001680B681B0715D5B2600B680A680E
:100A20005B0309D4D20509D40A6822F008020A60DF
:100A3000016C29B907E000BF110341D4016C11B169
:100A4000044688472046C26D202101FA02F33B424A
:100A500043D001680F68FF063FD5B36090F835704A
:100A60000B68052F1CD123F016030B604B6923F094
:100A700080034B61036C0BB9836C1BB10B6823F0D3
:100A800008030B603F219140B160012180F83510CF
:100A9000016D0022002980F8342054D158E000BFB5
:100AA0000A685B0310D4D20512D40A6822F010023F
:100AB0000A60012180F83510002180F8341007E029
:100AC000816C0029BCD1BEE7110301D4416C00E068
:100AD000C16B11B1044688472046416DC1B3416DD9
:100AE000C9072ED0052180F835100168AA0A0B68C5
:100AF00023F001030B60009B0133934200931AD84B
:100B00000B68DB0717D0009B01339342009312D888
:100B10000B68DB070FD0009B0133934200930AD888
:100B20000B68DB0707D0009B01339342009302D888
:100B30000B68DB07DFD1012180F83510002180F838
:100B40003410C16C21B101B0BDE8F040084700BFCE
:100B500001B0F0BD2DE9F041044600F0EFF9ECB131
:100B60000546022084F835000020216884F834000E
:100B7000086820F00100086021680868C00711D0EB
:100B800000F0DCF9401B0528F6D9032520230320BB
:100B9000636584F83550BDE8F08100BF0120BDE8F1
:100BA000F08100BF086848F23F02CFF21002D4E99A
:100BB000013500EA020C04F10C0898E8C10143EA8F
:100BC0000C032B431843D4E9072E3043384310431A
:100BD000626A40EA0E00042A40EA08031CD1206B36
:100BE000D4E90A2E40EA0E00184308604869BEF1B5
:100BF000000F20F0030040EA020040F0040C11D086
:100C0000B8F5005F36D0B8F1000F45D1022A46D0C2
:100C1000012A3BD032B942E00B60486920F007005E
:100C200040EA020C01F0F8004AF6AB221038CAF68E
:100C3000AA22A0FB02231A0948F2C403C1F814C077
:100C4000C0F600039A5C40F2FF335F284FF03F008C
:100C500021EA030100FA02F088BF0431C4E9161248
:100C60008860002301250020636584F83550BDE8C5
:100C7000F08100BF032AD5D8012540230120DFE8F9
:100C800002F0030E030500BF82E700BFAEF1C070A3
:100C9000B0FA80F0400904E0032A04D3C2D1CEF3B5
:100CA00000600028BED0012540230120636584F840
:100CB0003550BDE8F081000090F834C0BCF1010F60
:100CC00004BF0220704770B54FF0010C80F834C0AB
:100CD000D0F858E090F835C0BCF1010F38D14FF092
:100CE000020C80F835C04FF0000CC0F854C0D0F8AA
:100CF00000C08468056CC06DDCF80060402C26F4F0
:100D00008026CCF80060CCF804300B4604BF1346B4
:100D10000A463F2101FA00F0CCF80830CCF80C204C
:100D2000CEF80800DCF8000040F01600CCF8000017
:100D30002DB1DCF8000040F00800CCF80000DCF831
:100D4000000040F00100CCF80000002070BD00BFA2
:100D5000002180F83410022070BD0000B0B50446B8
:100D600000F0ECF8054640F20000C2F20000007806
:100D7000611C18BF044400BF00F0E0F8401BA04213
:100D8000FAD3B0BD2DE9F04F83B000F1200200F19D
:100D90003E4741F60045009207F1FF77C4F2020595
:100DA00008224FEAB726A84208BF072200254FF0C5
:100DB00000084FF00009072E38BF4FEAB722019212
:100DC0000AE000BF09F1010908F10208B9F1100FAA
:100DD00005F1040500F0A2800F68012202FA09FE65
:100DE00017EA0E0AEED0D1F804C003220CF0030774
:100DF0007E1E02FA08F4012E6FEA040B12D88468F2
:100E0000CE6804EA0B0406FA08F6344384604468AA
:100E100024EA0E06CCF3001404FA09F426434660D3
:100E200004E000BF032F01D103271EE0C6688C68D1
:100E300006EA0B0604FA08F42643022FC66014D112
:100E40006FF00302009E02EA590756F807C005F04A
:100E50001C040F220B69A2402CEA0202A3401A4391
:100E6000F251D1F804C00CF00307026807FA08F346
:100E700002EA0B021A431CF4403F0260A2D0002297
:100E800043F644030292C4F202031A6843F6004494
:100E900042F480421A601A68C4F2010402F48042EB
:100EA0000292029A29F003024FF6084C2244CFF630
:100EB000FF7C52F80C3005F00C070F26BE40B34300
:100EC000019E06FA07F73B4342F80C30A2684B68D4
:100ED00042EA0A0743F60C4CDE0258BF22EA0A0730
:100EE000A760C4F2010CDCF800209E0242EA0A0767
:100EF00058BF22EA0A07CCF8007062689E0342EAF3
:100F00000A0758BF22EA0A0767602268DB0342EA41
:100F10000A0758BF22EA0A07276053E703B0BDE873
:100F2000F08F00000069084018BF012070470000E2
:100F3000002A08BF090481617047000040F6701064
:100F4000C2F200000068704740F2000040F67011E5
:100F5000C2F20000C2F2000100780A681044086082
:100F60007047000080B543F60040C4F202000168FB
:100F700041F400710160016841F480610160016821
:100F800041F480710160032000F086F80F2000F02A
:100F900005F800F027F8002080BD000070B540F291
:100FA0000006C2F2000640F248013278C2F20001A7
:100FB0004FF47A730968B3FBF2F20446B1FBF2F125
:100FC000084600F019FC0F2C4FF0010508D838B97D
:100FD0004FF0FF3021460022002500F031F8746008
:100FE000284670BD82B0002043F640010190C4F253
:100FF00002014A6842F480424A604A6802F4804230
:101000000192019A0090086840F0805008600868DA
:1010100000F080500090009802B07047002848BF50
:10102000704700F01F01012202FA01F11C2202EABE
:10103000D0004EF20012CEF2000281507047000044
:1010400010B54EF60C5CCEF2000CDCF80030C3F3A9
:10105000022E8EF00704042C28BF0424BEF10303E3
:101060004FF0FF3E0EFA04F438BF0023A14399402D
:101070000EFA03F39A43114300F00F0200F16043AC
:101080000901043A03F564436244002848BF02F1B1
:101090000C03197010BD00004EF60C51CEF2000189
:1010A0000A684FF6FF031A4060F30A2242F080609C
:1010B00040F0FD7008607047002804BF01207047B1
:1010C0002DE9F04143F60808C4F202080446D8F8B6
:1010D000F8030D4600F00700884207D288F8F8535D
:1010E000D8F8F80300F00700A84277D120688107FC
:1010F00017D5410705D5D8F8001041F4E051C8F8DC
:101100000010010705D5D8F8001041F46041C8F877
:101110000010D8F80010A26821F0F0011143C8F8BF
:101120000010C00740D1D8F8F80300F00700A8422B
:1011300007D988F8F853D8F8F80300F00700A84258
:101140004CD12068410707D5D8F80010E26821F497
:10115000E0511143C8F80010000708D5D8F8000086
:10116000216920F4604040EAC100C8F8000000F0A6
:101170007DF8D8F8001046F2C462C1F30311C0F63E
:101180000002515C40F2480220FA01F140F20400F2
:10119000C2F200000068C2F200021160FFF7FEFE1A
:1011A0000020BDE8F08100BF6068811E022907D2DF
:1011B00058F8081C89015CBF0120BDE8F08111E0EE
:1011C000012807D158F8081C89035CBF0120BDE83D
:1011D000F08107E058F8081C890703D40120BDE816
:1011E000F08100BFD8F8001021F003010843C8F8CF
:1011F0000000FFF7A3FE064641F28837D8F800004A
:10120000616800F00C00B0EB810F8CD0FFF796FE08
:10121000801BB842F2D90320BDE8F08140F24800BB
:1012200043F60801C2F20000C4F202010068096836
:1012300046F2D462C1F38221C0F60002515CC8407C
:101240007047000040F2480043F60801C2F2000077
:10125000C4F202010068096846F2D462C1F3423167
:10126000C0F60002515CC8407047000010B543F65C
:101270000404C4F20204606800F00C0142F2004071
:101280000829C0F2F40007D0042918BF10BD41F2AC
:101290000020C0F27A0010BD216801F03F022168F1
:1012A00023684902C3F3881106D4A1FB000100237F
:1012B000FEF786FF07E000BF41F20020C0F27A008F
:1012C0004843B0FBF2F021680222C1F3014102EB76
:1012D0004101B0FBF1F010BD002804BF01207047B0
:1012E0002DE9F04182B00446007843F60006C007BD
:1012F000C4F202060CD0B06800F00C00042840F0E4
:1013000081803068800303D56068002800F0688120
:10131000207880071BD5B06810F00C0F09D0B0689A
:1013200000F00C00082840F087807068400200F14F
:1013300083803068800703D5E068012840F0508141
:101340003068216920F0F80040EAC1003060207860
:10135000000713D4207840072AD4A569002D00F097
:101360003A81B06800F00C00082840F0A580012DFB
:1013700040F00E81012002B0BDE8F08160690028D4
:1013800000F082800020C4F247200121C0F8801EB6
:10139000FFF7D4FD054600BF706F8007DAD4FFF772
:1013A000CDFD401B0228F7D9032002B0BDE8F08133
:1013B000306C5FEAC0080AD400200190306C40F025
:1013C00080503064306C00F080500190019847F2FA
:1013D0000007C4F200073868C00547D4386840F4F5
:1013E00080703860FFF7AAFD054600BF3868C00569
:1013F0003CD4FFF7A3FD401B0228F7D9032002B01D
:10140000BDE8F081B06800F00C00082803D17068D6
:1014100040023FF576AF61683068B1F5803F07D094
:10142000B1F5A02F40F09A8040F480203060306801
:1014300040F4803030609AE0E068002840F200001C
:10144000C4F247205CD001210160FFF777FD05461B
:10145000306880073FF574AFFFF770FD401B02282E
:10146000F6D9032002B0BDE8F08100BFA168306F5B
:10147000012905D0052955D140F004003067306FAF
:1014800040F00100306756E00020C4F24720002100
:10149000C0F8801EFFF752FD054600BF706F800741
:1014A0007FF558AFFFF74AFD401B0228F6D903200D
:1014B00002B0BDE8F08100BF0027C4F2472700203A
:1014C0003866FFF73BFD022D05460DD130688001DF
:1014D00040F18A80FFF732FD401B02284FF00300E5
:1014E000F4D902B0BDE8F0813068800173D5FFF710
:1014F00025FD401B02284FF00300F5D9F1E700BF9E
:1015000000210160FFF71AFD054600BF3068800723
:101510007FF51DAFFFF712FD401B02284FF00300BF
:10152000F4D9DEE720F001003067306F002920F0A9
:10153000040030677AD0FFF701FD054641F2883795
:10154000306F800700F18480FFF7F8FC401BB84241
:10155000F6D9032002B0BDE8F08100BF20F480304E
:1015600030603068002920F4802030607AD0FFF7A6
:10157000E5FC0546306880033FF5CAAEFFF7DEFCA8
:10158000401B6428F6D9032002B0BDE8F08100BFFB
:101590007068E16900F480028A4221D1216A00F07A
:1015A0003F028A421CD147F6C071626A0140B1EB2A
:1015B000821F15D1A16A4FF6FF73C903994300F446
:1015C0004032A1F580318A420AD1E16A00F07060B0
:1015D000B0EB016F04D1002002B0BDE8F08100BF84
:1015E000012002B0BDE8F08104F11C052FCD0843B5
:1015F00040EA8210D9034FF6FF729143A1F5803182
:1016000040EA05600843706001203866FFF796FCE9
:10161000044600BF30688001DDD4FFF78FFC001B5B
:1016200002284FF00300F5D95BE700BFFFF786FC07
:10163000054641F2883700BF306F800708D5FFF7B5
:101640007DFC401BB8424FF00300F5D949E700BFCD
:10165000B8F1000F3FF581AE306C20F0805030645F
:101660007BE600BFFFF76AFC054600BF30688003D9
:101670007FF54EAEFFF762FC401B64284FF003007D
:10168000F4D92EE770B528B1416A29B10021016172
:10169000142106E0012070BD4168B1F5827F02D0BF
:1016A0001C21002242500026866290F8511029B970
:1016B00080F85060054600F03DF82846022180F889
:1016C000511090E82E0002F482720C6803F4044377
:1016D00024F040040C601A4405F4006305691A44C0
:1016E00005F0020345691A4405F001038569C469E0
:1016F0001A4405F400731A4404F03803046A1A44C7
:1017000004F08003846A1A4304F400531A430A6005
:10171000436A042202EA154203F010031A444A60A5
:10172000CA6922F40062CA610121466580F851103D
:10173000304670BD80B586B0006843F60002C4F242
:10174000000200219042CDE90411CDE9021101917E
:1017500024D043F20001C4F20101884249D10020A3
:1017600043F630010090C4F202014A6942F480520B
:101770004A614A6902F480520092009A0090086817
:1017800040F0010008600868A02100F0010000900E
:1017900000980020C4F202001FE000BF43F63000B2
:1017A0000091C4F20200026942F4804202610269BF
:1017B00002F480420092009A0091016841F0020117
:1017C000016000684FF4444100F00200009000986E
:1017D0000020C4F2020000F5806001910221029114
:1017E00000210391032104910521059101A9FFF72F
:1017F000C9FA06B080BD0000411E0020B0EB116F99
:101800001CBF012070474EF21002CEF20002516060
:101810004EF62351CEF20001F0230B7007219060A9
:1018200011607047704700007047000090F83C203E
:10183000012A4FF0020254D010B580F83D20026812
:10184000D2F804E0D2F808C00C682EF070032343ED
:1018500041F2FF74C4F20004A24253600EDC40F275
:10186000FF73C4F200039A4216DCB2F1804F2BD012
:1018700040F20043C4F2000324E000BF40F2FF3313
:10188000C4F201039A4213DC41F60003C4F20003E0
:101890009A4219D0002313E040F60003C4F200037B
:1018A0009A4211D040F60043C4F200030AE000BFA0
:1018B00044F20003C4F201039A4205D040F200430F
:1018C000C4F201039A4204D149682CF08003194301
:1018D00091600121002280F83D1080F83C20BDE895
:1018E0001040104670470000002804BF01207047D8
:1018F00010B5044690F83D0028B9002084F83C005B
:10190000204600F01FF8022084F83D002068211DC9
:1019100003F04CF9012084F8460084F83E0084F876
:101920003F0084F8400084F8410084F8420084F8C5
:10193000430084F8440084F8450084F83D0000200A
:1019400010BD000080B582B00068A0F18040A0F515
:1019500080604FEAB02005283BD8DFE800F0032B79
:10196000113A3A3D0020019043F64000C4F20200D3
:10197000016841F002010160006800F0020026E009
:101980000020019043F64000C4F2020001680022EA
:1019900041F0080101600068002100F0080001909A
:1019A00001983220FFF74CFB322002B0BDE88040A6
:1019B000FFF734BB0020019043F64000C4F2020060
:1019C000016841F004010160006800F0040001902A
:1019D000019802B080BD00BF0020019043F6400096
:1019E000C4F202000168002241F040010160006879
:1019F000002100F04000019001982B20FFF720FB10
:101A00002B2002B0BDE88040FFF708BB90F83D10E6
:101A100001291CBF01207047022180F83D10006899
:101A200041F2FF72C168C4F20002904241F001012C
:101A3000C1600DDC40F2FF71C4F20001884215DC88
:101A4000B0F1804F2AD040F20041C4F2000123E0FF
:101A500040F2FF31C4F20101884213DC41F600017B
:101A6000C4F20001884219D0002113E040F60001C1
:101A7000C4F20001884211D040F60041C4F20001D6
:101A80000AE000BF44F20001C4F20101884205D01F
:101A900040F20041C4F20101884206D1816801F0A0
:101AA0000701062904BF00207047016841F00101C9
:101AB000016000207047000090F83C20012A4FF0A0
:101AC00002026CD080B580F83D20D0F800C04FF6FF
:101AD0007772DCF8083023EA0202CCF808200B68A1
:101AE0004F2B29DC1F2B45DD202B46D0302B44D03B
:101AF000402B40F0AF80D1F804E0C968DCF820301A
:101B0000DCF8202022F00102CCF82020DCF818209C
:101B100022F0F00242EA011123F00A0242EA0E0228
:101B2000CCF81810CCF82020DCF8081041F0470160
:101B300021F0300128E000BF6F2B33DDB3F5005FEB
:101B400074D0B3F5805F21D0702B40F08380D1E951
:101B500001E3C968DCF8082043EA0E0322F47F425F
:101B600043EA01211143CCF80810DCF8081041F0D9
:101B7000770109E00BB1102B6CD1DCF8081021F0D3
:101B80007001194341F00701CCF80810002201212F
:101B900080F83D10002180F83C10BDE880401046E0
:101BA000704700BF502B21D0602B53D1D1F804E0F7
:101BB000C968DCF82030DCF8202022F01002CCF8D4
:101BC0002020DCF8182022F4704242EA013123F090
:101BD000A00242EA0E12CCF81810CCF82020DCF853
:101BE000081041F0670121F01001CDE7D1F804E0C1
:101BF000C968DCF82030DCF8202022F00102CCF8A3
:101C00002020DCF8182022F0F00242EA011123F033
:101C10000A0242EA0E02CCF81810CCF82020DCF8B8
:101C2000081041F0570121F02001ADE7D1E901E3AF
:101C3000C968DCF8082043EA0E0322F47F4243EA35
:101C400001211143CCF80810DCF8081041F4804160
:101C50009AE700BF01229AE7002804BF01207047DD
:101C60002DE9F047044690F83D000D4628B90020C4
:101C700084F83C00204600F049F8022084F83D003A
:101C8000206844F20702816891438160211D02F0BF
:101C90008DFF20684FF6FF7881688269D0F820C0F8
:101CA000D5E9003ED5E9026A43EA0109AB6922EAB7
:101CB000080246EA03234FF6FC46B343D5E907671B
:101CC00042EA0A0229691A4342EA062242EA01115B
:101CD0002CF0AA026B6942EA0E0241EA073142EA9D
:101CE0000312C0F8089081610262012084F8460066
:101CF00084F83E0084F83F0084F8420084F84300F2
:101D000084F83D000020BDE8F087000080B586B073
:101D100000680021B0F1804F0591CDE903110291D7
:101D2000019125D00021C4F20101884247D1002051
:101D300043F630010090C4F202014A6942F0010208
:101D40004A614A6902F001020092009A0090086814
:101D500040F01000086008684FF4206100F01000A7
:101D6000009000980020C4F2020000F580501BE0B3
:101D700043F630000091C4F20200026942F0010211
:101D80000261026902F001020092009A009101686A
:101D900041F0010101600068032100F001000090A2
:101DA00000980020C4F2020001910221029100215A
:101DB000CDE903110121059101A9FEF7E3FF06B06A
:101DC00080BD000080B590F83E2090F83F3090F83C
:101DD00042E090F843C004290AD0B9B9012A4FF073
:101DE000010208BFBEF1010F34D0104680BD00BF14
:101DF000012B4FF0010208BFBCF1010FF5D1022108
:101E000080F83F1080F8431000681EE0012A4FF070
:101E1000010208BF012BE8D1BEF1010FE5D1BCF1F1
:101E2000010FE2D1022280F83E2080F83F2080F8A6
:101E3000422080F8432091B10068016A21F001013D
:101E40000162016A41F00101016210216FF010028C
:101E500009E000BF022180F83E1080F842100068BF
:101E600001216FF00102036A1A400262026A114303
:101E700001620168002241F001010160104680BD4D
:101E80007047000070B504460068C5680669B10770
:101E900016D515F0020113D06FF002010161012186
:101EA00021778069800703D02046FFF7E9FF05E02E
:101EB000204600F08FF8204600F0CEF90020207771
:101EC000700719D515F0040016D020686FF00401D2
:101ED000016102212177806910F4407F04D02046FF
:101EE000FFF7CEFF06E000BF204600F073F8204663
:101EF00000F0B2F900202077300717D515F0080060
:101F000014D020686FF00801016104212177C069B5
:101F1000800703D02046FFF7B3FF05E0204600F01E
:101F200059F8204600F098F900202077F00619D5DE
:101F300015F0100016D020686FF010010161082123
:101F40002177C06910F4407F04D02046FFF798FF46
:101F500006E000BF204600F03DF8204600F07CF986
:101F600000202077F00718BF15F0010002D13006DD
:101F700009D412E020686FF001010161204600F0F1
:101F8000F5F9300609D515F0800006D020686FF00D
:101F9000800101612046FFF745FC700609D515F068
:101FA000400006D020686FF040010161204600F03B
:101FB00035FAB00658BF70BD15F0200008D0216872
:101FC0006FF0200220460A61BDE87040FFF72CBC8C
:101FD00070BD00007047000090F83C30012B04BF3A
:101FE000022070474FEAB202032A00F2FF802DE977
:101FF000F043DFE802F003B13F7F00BF036840F227
:1020000000461C6A1A6A24F0020422F001021A62D5
:102010001A46D3F804C052F818EF8F6843F480656D
:10202000C4F20106B54244EA070405D1CF6824F0A2
:102030000C0427F004073C430F68B54206D1D1E9F0
:1020400005582CF440762E4346EA080C2EF0730611
:102050003743C3F804C09F614F6809695F631C621E
:102060009F6947F008079F619F6927F004079F61F8
:10207000B1E000BF036840F200481C6A1A6A24F409
:10208000007422F480721A621A46D3F804C052F81F
:102090001CEF8F6843F48065C4F20108454544EAAB
:1020A000072408D1CF6840F2FF463F0224F4406481
:1020B00027EA06063443D1F80090454506D1D1E918
:1020C00005562CF440572E4347EA061C2EF07307A2
:1020D00047EA0907C3F804C0DF614F680969DF6395
:1020E0001C62DF6947F00807DF61DF6927F004073A
:1020F000DF6170E0036840F20045D3F820C01A6A3F
:1021000043F4806722F480521A621A465C6852F8DF
:102110001C8FD1F800E08E68C4F20105AF4204D1F3
:102120004D6924F4804444EA85142CF4005747EAAE
:10213000063728F4E64646EA0E265C60DE614E6805
:1021400009691E641F62DF6947F40067DF61DF69A8
:1021500027F48067DF613DE0036840F200481C6AB5
:102160001A6A24F0200422F010021A621A46D3F8E8
:1021700004C052F818EF8F6843F48065C4F2010878
:10218000454544EA071407D1CF686FF0400624F0B4
:10219000C00406EA07163443D1F80090454506D13D
:1021A000D1E905562CF440672E4347EA860C2EF4FD
:1021B000E64747EA0927C3F804C09F614F680969E9
:1021C0009F631C629F6947F400679F619F6927F4C2
:1021D00080679F6109021368194311600021BDE8FF
:1021E000F043002280F83C2008467047012100227D
:1021F00080F83C2008467047002804BF0120704743
:1022000010B5044690F83D0028B9002084F83C0041
:10221000204600F01FF8022084F83D002068211DB0
:1022200002F0C4FC012084F8460084F83E0084F8E3
:102230003F0084F8400084F8410084F8420084F8AC
:10224000430084F8440084F8450084F83D000020F1
:1022500010BD00007047000070470000C1B10429A4
:1022600008D0082914BF41224022825C012A05D0EF
:1022700016E000BF3F22825C012A11D10222082908
:1022800010D0042914BF80F8412080F83F200BE0D3
:1022900090F83E20012A03D1022280F83E2003E07C
:1022A0000120704780F84020006801F01F010122E2
:1022B000036A02FA01F123EA01020262026A11438F
:1022C00041F2FF72C4F20002904201620CDC40F263
:1022D000FF71C4F20001884214DCB0F1804F37D0A6
:1022E00040F2004116E000BF40F2FF31C4F20101AC
:1022F000884215DC41F60001C4F20001884227D073
:10230000002115E040F60001C4F2000188421FD010
:1023100040F60041C4F20001884219D01FE000BF1E
:1023200044F20001C4F20101884211D040F20041A0
:10233000C4F20101884212D1416C40F2004340F4E2
:102340008062C4F2010341F400419A42416406D123
:10235000816801F00701062904BF00207047016869
:1023600041F001010160002070470000006840F664
:102370000041C4F20001884218BF7047B0B502F0B6
:102380002FFF40F2B470C2F20000006840F27804FF
:10239000406AC2F20004606040F22470C2F20000A1
:1023A0000068406A2080B4F90050FEF7C7FD6168FC
:1023B000A268A060821AE06800EE102A9FED141A4D
:1023C000B8EE400A081A20EE010A01EE100AB8EE33
:1023D000C11A9FED102A226921EE401A9FED0E3A94
:1023E00021EE021AAA1A21EE031AE160256184ED9A
:1023F000051A01EE102AB8EEC11A20EE010A20EEED
:10240000020A20EE030A84ED060ABDE8B0407047D8
:102410006F12833A0AD78340000070427047000071
:102420007047000070470000B0B582B001680A68CC
:10243000CC684B6902F02F05202D04F0200505D152
:1024400025B102B0BDE8B04002F0CEBD5FEA027C2B
:102450001EBF03F0010E04F4907313EB0E0341D181
:10246000036BD50618D5012B16D114F0100313D029
:10247000002201920A6801924A680192019A496910
:1024800049064BD4818DC28DC38D002B18BF91425C
:1024900040F0068202B0B0BD13062DD514F08003C3
:1024A0002AD090F84120212AF4D18268B2F5805FC9
:1024B00003D10269002A00F07982026A531C036288
:1024C00012784A60C28C013A1304C284E2D1C8680F
:1024D00020F08000C860C86840F04000C86002B0CA
:1024E000B0BD00BFD30718BF14F4807340F0E28082
:1024F000530700F1E580EAE05206CBD514F0400224
:10250000C8D0CA6822F04002CA60202180F8411079
:1025100002B0BDE8B04000F00BBD00BFC26B116857
:102520004B68858D99B2002900F0B480A94280F0F3
:10253000B180C385D169B1F5807F00F0A0800168CA
:1025400051E8031F026821F4807142E80313DBB1F4
:10255000016851E8031F026821F4807142E8031307
:1025600093B1016851E8031F026821F4807142E8C9
:1025700003134BB1016851E8031F026821F4807115
:1025800042E80313002BDAD1016851E8051F026805
:1025900021F0010142E80513BBB3016851E8051FB2
:1025A000026821F0010142E8051373B3016851E8A4
:1025B000051F026821F0010142E805132BB30168F1
:1025C00051E8051F026821F0010142E80513002BC4
:1025D000DAD11AE0016851E8051F026821F04001D4
:1025E00042E80513DBB1016851E8051F026821F0DC
:1025F000400142E8051393B1016851E8051F0268E4
:1026000021F0400142E805134BB1016851E8051F74
:10261000026821F0400142E80513002BDAD12021A5
:1026200080F8421000210163016851E8031F02682D
:1026300021F0100142E80313DBB1016851E8031FE8
:10264000026821F0100142E8031393B1016851E8D8
:10265000031F026821F0100142E803134BB1016827
:1026600051E8031F026821F0100142E80313002B18
:10267000DAD1C16B04460846FEF730F92046022144
:102680004163818DC28D891A89B202B0BDE8B04024
:10269000FFF7C6BE8D427FF4FDAED269B2F5807FF2
:1026A0007FF4F8AE0222426302B0BDE8B040FFF70B
:1026B000B7BE00BF436C43F001034364530706D524
:1026C000BEF1000F03D0436C43F002034364930751
:1026D00006D5BEF1000F03D0436C43F004034364FE
:1026E000BCF1000F06D55EEA050303D0436C43F04E
:1026F00008034364436C002B3FF4CCAE920605D52F
:1027000025B1044602F070FC216820464969426CFC
:1027100001F0400102F00802891800F0B98000BF02
:10272000016851E8031F026821F4907142E8031325
:10273000BBB3016851E8031F026821F4907142E8BD
:10274000031373B3016851E8031F026821F4907109
:1027500042E803132BB3016851E8031F026821F418
:10276000907142E80313002BDAD11AE0016851E8B6
:10277000051F026821F0010142E80513DBB1016881
:1027800051E8051F026821F0010142E8051393B1E9
:10279000016851E8051F026821F0010142E80513B4
:1027A0004BB1016851E8051F026821F0010142E8C0
:1027B0000513002BDAD1016B012924D1016851E8FE
:1027C000031F026821F0100142E80313DBB1016826
:1027D00051E8031F026821F0100142E8031393B18E
:1027E000016851E8031F026821F0100142E8031359
:1027F0004BB1016851E8031F026821F0100142E863
:102800000313002BDAD1202180F84210002101634C
:1028100001684969490640F1C380016851E8051F14
:10282000026821F0400142E80513DBB1016851E87C
:10283000051F026821F0400142E8051393B10168C9
:1028400051E8051F026821F0400142E805134BB131
:10285000016851E8051F026821F0400142E80513B4
:10286000002BDAD1C16B002900F09A8044F6E942CE
:10287000C0F60002044608460A65FEF777F800280D
:102880003FF408AEE06B016D02B0BDE8B040084710
:102890000446FFF7C7FD0020606402B0B0BD00BF72
:1028A000891A00BF026852E8032F036822F490726D
:1028B00043E80325BDB3026852E8032F036822F4FE
:1028C000907243E8032575B3026852E8032F03684A
:1028D00022F4907243E803252DB3026852E8032FD7
:1028E000036822F4907243E80325002DDAD11AE040
:1028F000026852E8052F036822F0010243E805252B
:10290000DDB1026852E8052F036822F0010243E8B6
:10291000052595B1026852E8052F036822F00102EF
:1029200043E805254DB1026852E8052F036822F0FF
:10293000010243E80525002DDAD1202280F842204B
:1029400000220263026852E8032F036822F010029B
:1029500043E80325DDB1026852E8032F036822F043
:10296000100243E8032595B1026852E8032F03687B
:1029700022F0100243E803254DB1026852E8032F0C
:10298000036822F0100243E80325002DDAD1022269
:1029900089B2426302B0BDE8B040FFF741BD00BF5D
:1029A00002B0BDE8B040FFF73DBD00BF026A32F89B
:1029B000023B6FF35F234B60026283E5002804BF94
:1029C0000120704710B5044690F8410028B9002056
:1029D00084F84000204600F021F8242084F84100CB
:1029E0002068C16821F40051C160204602F07CFBE0
:1029F0002068016921F490410161416921F02A01B7
:102A00004161C16841F40051C1600020202160642F
:102A100084F8411084F84210606310BD2DE9F04144
:102A200086B00446216844F20042C4F2000200204D
:102A30009142CDE90400CDE90200019078D041F245
:102A40000000C4F20100814240F09980002643F664
:102A500030000096C4F20200416946F2404841F05D
:102A6000100141614169C4F2020801F010010091B6
:102A700000990096016841F002010160006801A917
:102A800000F0020000900098C02001900220CDE9E3
:102A9000020603200490072005900020C4F20200E3
:102AA00000F58060FEF76EF940F2B455C2F2000501
:102AB0004FF440304FF00067C5E908062846C5E9E5
:102AC0000087C5E90266C5E90466C5E90666FEF742
:102AD00041F8002818BFFDF7FDFEE563AC6340F246
:102AE000146508F17800C2F20005C5E900074FF44B
:102AF000803040214FF48062C5E908062846C5E9C8
:102B00000216C5E90426C5E90666FEF723F8002883
:102B100018BFFDF7DFFE252000210022A563AC636E
:102B2000FEF78EFA2520FEF779FA06B0BDE8F081AF
:102B300043F630010090C4F202010A6942F4003207
:102B40000A610A6902F400320092009A00900A6851
:102B500042F001020A60096801F001010091009948
:102B60000C2101910221CDE90210032004900720DD
:102B700005900020C4F2020001A9FEF703F906B097
:102B8000BDE8F08170B582B090F84250202D0BD195
:102B900013460A460146002A4FF0010018BF002BD9
:102BA00006D102B070BD00BF022002B070BD00BFF0
:102BB000002622200E638A628B854E6481F84200D3
:102BC0000C680D46C86B44F6716C44F6D171C0F6C2
:102BD000000CC0F60001C0E90FC144F6F541C0F693
:102BE0000001C0E91316211DFEF766F840B1102060
:102BF0006864202085F84200012002B070BD00BF4B
:102C0000019628682946026801924068019001985F
:102C1000286928B3086850E8030F0A6840F48070F8
:102C200042E80303E3B1086850E8030F0A6840F480
:102C3000807042E803039BB1086850E8030F0A68FC
:102C400040F4807042E8030353B1086850E8030F72
:102C50000A6840F4807042E80303002BDAD100BF19
:102C6000086850E8050F0A6840F0010042E80503D3
:102C7000DBB3086850E8050F0A6840F0010042E83D
:102C8000050393B3086850E8050F0A6840F0010097
:102C900042E805034BB3086850E8050F0A6840F0A6
:102CA000010042E80503002BDAD11EE0086850E875
:102CB000050F0A6840F0400042E80503FBB10868D0
:102CC00050E8050F0A6840F0400042E80503B3B140
:102CD000086850E8050F0A6840F0400042E8050324
:102CE000002B4FF000003FF45CAF086850E8050F80
:102CF0000A6840F0400042E80503002BD6D10020CE
:102D000002B070BD90F84230202B07D100294FF05F
:102D1000010318BF002A05D1184670470223184640
:102D2000704700BF00230363816222218285C28530
:102D3000436480F842100169006819B1C16841F428
:102D40008071C160416941F001014161C16841F098
:102D50002001C1601846704740F6D401C2F200015C
:102D6000884218BF7047B0B540F2B154C2F20004B7
:102D7000207802F0D1FB40F6D405C2F200052846C7
:102D800021460122FFF7BEFF284621460B22BDE85F
:102D9000B040FFF7F7BE0000704700002DE9F04398
:102DA00081B0044690F84100202809D100294FF055
:102DB000010018BF002A07D101B0BDE8F08300BFB1
:102DC000022001B0BDE8F0830020606421201D4690
:102DD0000E4684F841001746FEF7B0F8A784E78452
:102DE000A1688146B1F5805F02D1206900285DD0DD
:102DF00037460020E28C2168002A5DD06A1C24D06E
:102E0000002D4AD0804600BF0868000608D4FEF7AF
:102E100095F8A0EB0900A8427AD82168C868F3E7C2
:102E200017B117F8010B04E038F8020B00276FF315
:102E30005F204860E08C0138E084E08C0028E3D11A
:102E40003AE000BF0A68120609D40A68120606D4DE
:102E50000A6812065CBF0A685FEA0262F2D51FB117
:102E600017F8012B05E000BF30F8022B00276FF3A5
:102E70005F224A60E28C013AE284E28C002AE4D1CB
:102E80001AE000BF30F8022B00276FF35F224A6080
:102E9000E28C013AE284E28C72B10A68120635D5FE
:102EA000002FEFD017F8012BF1E700BF00273046C5
:102EB000E28C2168002AA1D1086840061ED42DB3F7
:102EC000681C14D1086840062AD40868400627D434
:102ED0000868400624D4086840064FF00000F1D589
:102EE0000DE000BF2068C1680068400618D4FEF7F6
:102EF00025F8A0EB0900A842F4D909E00020202120
:102F000084F8411001B0BDE8F08300BFFEF716F869
:102F10000320202184F8411001B0BDE8F08300BFF8
:102F20000020202184F8411001B0BDE8F0830000AA
:102F300070470000FEE700002DE9F04381B040F645
:102F40000004C4F202041646894680462046022147
:102F500001221D46FDF7ECFF204604210122FDF76A
:102F6000E7FF0A20FDF782FC20460221002200270D
:102F7000FDF7DEFF0A20FDF779FC20460421002240
:102F8000FDF7D6FF08F0FE0000F070F900285DD1D3
:102F9000484600F06BF908B1002757E020460221AF
:102FA0000122FDF7C5FF204604210122FDF7C0FFE5
:102FB0000A20FDF75BFC2046022100220027FDF7D6
:102FC000B7FF0A20FDF752FC204604210022FDF73E
:102FD000AFFF48F0010000F049F9B8BBCDB934E0CB
:102FE0000022FDF7A5FF204604210122FDF7A0FFE6
:102FF0000A20FDF73BFC204604210022FDF798FF44
:10300000204602210122FDF793FF013D06F1010652
:103010001BD000F037F8012D307020464FF0020130
:10302000DED10122FDF784FF204604210122FDF7B5
:103030007FFF0A20FDF71AFC204604210022FDF73D
:1030400077FF013D06F10106E3D101272046022169
:103050000022FDF76DFF0A20FDF708FC2046042141
:103060000122FDF765FF0A20FDF700FC2046022142
:103070000122FDF75DFF0A20FDF7F8FB384601B09D
:10308000BDE8F083F0B585B040F60004C4F2020458
:1030900020460221012202250126FDF749FF0020DA
:1030A000CDE900506D460490CDE9026020462946E6
:1030B000FDF768FE204604210122FDF739FF0A20B2
:1030C000FDF7D4FB20460221FDF72CFF0646002821
:1030D00020464FF004014FF0000218BF0126FDF713
:1030E00027FF0A20FDF7C2FB204604210122FDF73D
:1030F0001FFF0A20FDF7BAFB20460221FDF712FF51
:10310000002818BF012040EA46072046042100227B
:10311000FDF70EFF0A20FDF7A9FB2046042101223E
:10312000FDF706FF0A20FDF7A1FB20460221FDF76F
:10313000F9FE0646002820464FF004014FF0000239
:1031400018BF0126FDF7F4FE0A20FDF78FFBB8003B
:1031500040EA4606204604210122FDF7E9FE0A2046
:10316000FDF784FB20460221FDF7DCFE002818BF96
:1031700001203718204604210022FDF7D9FE0A203D
:10318000FDF774FB204604210122FDF7D1FE0A2041
:10319000FDF76CFB20460221FDF7C4FE0646002821
:1031A00020464FF004014FF0000218BF0126FDF742
:1031B000BFFE0A20FDF75AFBB80040EA460620464B
:1031C00004210122FDF7B4FE0A20FDF74FFB204643
:1031D0000221FDF7A7FE002818BF0120371820465E
:1031E00004210022FDF7A4FE0A20FDF73FFB204644
:1031F00004210122FDF79CFE0A20FDF737FB204643
:103200000221FDF78FFE0646002820464FF00401FC
:103210004FF0000218BF0126FDF78AFE0A20FDF7D5
:1032200025FBB80040EA4606204604210122FDF7AE
:103230007FFE0A20FDF71AFB20460221FDF772FEF1
:10324000002818BF01200644204604210022FDF773
:103250006FFE0A20FDF70AFB112001902046294647
:10326000FDF790FDF0B205B0F0BD0000B0B540F63E
:103270000004C4F202040546C20920460221FDF7FB
:1032800057FE204604210122FDF752FE0A20FDF7D9
:10329000EDFA204604210022FDF74AFE0A20FDF740
:1032A000E5FAC5F3801220460221FDF741FE2046D3
:1032B00004210122FDF73CFE0A20FDF7D7FA204643
:1032C00004210022FDF734FE0A20FDF7CFFAC5F3F2
:1032D000401220460221FDF72BFE20460421012248
:1032E000FDF726FE0A20FDF7C1FA20460421002240
:1032F000FDF71EFE0A20FDF7B9FAC5F300122046BD
:103300000221FDF715FE204604210122FDF710FEE3
:103310000A20FDF7ABFA204604210022FDF708FE43
:103320000A20FDF7A3FAC5F3C00220460221FDF7EB
:10333000FFFD204604210122FDF7FAFD0A20FDF7DA
:1033400095FA204604210022FDF7F2FD0A20FDF740
:103350008DFAC5F3800220460221FDF7E9FD2046E3
:1033600004210122FDF7E4FD0A20FDF77FFA204643
:1033700004210022FDF7DCFD0A20FDF777FAC5F3F2
:10338000400220460221FDF7D3FD20460421012200
:10339000FDF7CEFD0A20FDF769FA20460421002240
:1033A000FDF7C6FD0A20FDF761FA05F0010220468F
:1033B0000221FDF7BDFD204604210122FDF7B8FDE5
:1033C0000A20FDF753FA204604210022FDF7B0FD44
:1033D0000A20FDF74BFA204602210122FDF7A8FD45
:1033E000204604210122FDF7A3FD0A20FDF73EFA45
:1033F00020460221FDF796FD0546204604210022C5
:10340000FDF796FD0A20FDF731FA2846B0BD000011
:1034100010B586B0B52005904AF6FF20C8F66900C1
:103420004AF6FF2104900020C0F6010140F6D404C2
:103430000390CDE901014AF6FF20C2F2000400909A
:1034400004A9204605224FF47A73FFF7A7FCC82091
:10345000FDF784FC02A9204605224FF47A73FFF79A
:103460009DFC40F6B830FDF779FC69462046052200
:103470004FF47A73FFF792FC06B010BD90ED001A7E
:103480009FED140AB4EE401AF1EE10FA02DD80ED61
:10349000000A08E09FED100AB4EE401AF1EE10FAAF
:1034A000B8BF80ED000A91ED001A9FED0A0AB4EE54
:1034B000401AF1EE10FA03DD81ED000A704700BFFB
:1034C0009FED050AB4EE401AF1EE10FAB8BF81ED97
:1034D000000A704700007A4400007AC480B582B0C8
:1034E0000020019043F63000C4F20200016800227F
:1034F00041F4800101600068002100F48000019027
:1035000001983A20FDF79CFD3A20FDF787FD462003
:1035100000210022FDF794FD462002B0BDE8804066
:10352000FDF77CBD2DE9F04F87B0002543F6300054
:103530000695CDE90455CDE902550195C4F2020086
:10354000016840F6004841F0800101600168C4F262
:10355000020801F080010191019901950168A8F527
:10356000806941F0040101600168002201F004015A
:10357000019101990195016841F001010160016823
:1035800001F00101019101990195016841F01001DB
:103590000160016801F01001019101990195016834
:1035A00041F002010160016801F0020101910199FD
:1035B0000195016841F008010160006841F6C651BB
:1035C00000F00800019001984846FDF7B1FCA8F50D
:1035D000006738464FF4006100224FF4006BFDF79E
:1035E000A7FC404648F20C01002248F20C0AFDF705
:1035F0009FFC06200290112002AE03900124484651
:103600003146CDE90445FDF7BDFB38463146CDE9ED
:1036100002B4CDE90455FDF7B5FB4FF48070CDE958
:103620000205404631460494FDF7ACFB4FF4C06000
:10363000CDE90205404631460495FDF7A3FB40461F
:103640003146CDE902A4CDE90455FDF79BFB4FF4CB
:10365000EE5002A931C1484631460595FDF792FB6F
:1036600007B0BDE8F08F000080B540F2746043F20F
:10367000000CC2F20000C4F2010C4FF482724FF44D
:10368000004300214FF4007EC0E900C20A22C0E9D5
:103690000231C0E90411C0E906E1C0E90811C0E93E
:1036A0000A12FDF7EFFF002808BF80BDBDE880408B
:1036B000FDF710B910B540F2CC6043F60001C2F23C
:1036C0000000C4F200014FF48272002380E80E0073
:1036D00000F10C014FF0020C4FF0010E4FF400749A
:1036E00081E808500A21C0E90643C0E90833C0E96F
:1036F0000A31FDF7C7FF002808BF10BDBDE8104024
:10370000FDF7E8B880B584B040F26C7041F6000275
:103710000021C2F20000C4F2000253234FF6FF7CE6
:103720000391CDE90111C0E90023C0E9021C016148
:103730008161FEF7D9F8002818BFFDF7CBF84FF4E8
:103740008050009040F26C70C2F200006946FEF7B3
:10375000B3F9002818BFFDF7BDF804B080BD000024
:1037600010B58CB040F2247000210024C2F2000099
:10377000C4F20101C0E9001401214FF6FF72CDE946
:103780000314CDE90514CDE9091403A9CDE90044DA
:10379000C0E90242C0E904448461CDE907440B94C6
:1037A000FEF75AFA002818BFFDF794F840F224708B
:1037B000C2F200006946CDE90044FEF737F8002860
:1037C00018BFFDF787F80CB010BD000080B58CB0B5
:1037D00040F2B4700021C2F200004FF080424FF07E
:1037E000FF33C0E900210122CDE90011C0E9021335
:1037F00001618161CDE90321CDE90521CDE9071101
:10380000CDE909210B9103A9FEF726FA002818BF7C
:10381000FDF760F840F2B470C2F200006946FEF7AE
:1038200005F8002818BFFDF755F80CB080BD000062
:10383000B0B594B040F2004540F2FC70C4F200050F
:103840000021C2F20000A72240F2E7330D91CDE93A
:103850000B110991CDE90711CDE90511CDE903114E
:10386000CDE90111C0E90052C0E902130161816193
:10387000FEF73AF8002818BFFDF72CF84FF48050F7
:103880000A9040F2FC70C2F200000AA9FEF714F997
:10389000002818BFFDF71EF840F2FC70C2F20000CD
:1038A000FEF7AAFC002818BFFDF714F840F2FC70E0
:1038B0000024C2F2000008A9CDE90844FDF7B6FFD4
:1038C000002818BFFDF706F86020CDE90104039435
:1038D000059440F2FC74C2F2000401A920460C22B7
:1038E000FEF77AFB002818BFFCF7F4FF216840F6CA
:1038F0000002C4F2000200209142CDE91200CDE99D
:1039000010000F9014D0A9422ED10E9043F6300033
:10391000C4F20200016841F00401016000684FF444
:10392000007100F004000E900E9805F5013011E0D2
:103930000E9043F63000C4F20200016841F0080125
:10394000016000684FF4804100F008000E900E986E
:1039500005F502300F9102211091002213910FA959
:10396000CDE91122FDF70EFA14B0B0BDB0B594B098
:1039700040F6000540F64400C4F200050021C2F202
:103980000000A72240F2E7330D91CDE90B11099118
:10399000CDE90711CDE90511CDE90311CDE90111FB
:1039A000C0E90052C0E9021301618161FDF79CFF8B
:1039B000002818BFFCF78EFF4FF480500A9040F6A5
:1039C0004400C2F200000AA9FEF776F8002818BFEA
:1039D000FCF780FF40F64400C2F20000FEF70CFC4A
:1039E000002818BFFCF776FF40F644000024C2F21E
:1039F000000008A9CDE90844FDF718FF002818BF0A
:103A0000FCF768FF6020CDE901040394059440F6BB
:103A10004404C2F2000401A920460822FEF7DCFAA1
:103A2000002818BFFCF756FF21680020A942139018
:103A3000CDE9110010900F901AD040F20040C4F26E
:103A40000000814230D100200E9043F63000C4F2D5
:103A50000200016841F00401016000684FF4007148
:103A600000F004000E900E9805F5003012E000BF43
:103A70000E9043F63000C4F20200016841F00801E4
:103A8000016000684FF4804100F008000E900E982D
:103A900005F501300F9102211091002213910FA919
:103AA000CDE91122FDF76EF914B0B0BD80B586B036
:103AB00040F68C0040F600420021C2F20000C4F241
:103AC000000240F28F6340F2E73C0591CDE903111B
:103AD000CDE90011C0E90023C0E9021C0161816148
:103AE000FDF702FF002818BFFCF7F4FE4FF48050EA
:103AF000029040F68C00C2F2000002A9FDF7DCFF44
:103B0000002818BFFCF7E6FE40F68C00C2F2000069
:103B10006946FDF78BFE002818BFFCF7DBFE06B0F8
:103B200080BD000080B540F6D40041F20001C2F231
:103B30000000C4F2010100234FF00C0C4FF4E132FD
:103B400080E80E00C0E90333C0E905C3C361FEF796
:103B500035FF002808BF80BDBDE88040FCF7BABE35
:103B600080B540F61C1044F20041C2F20000C4F2DD
:103B7000000100234FF00C0C4FF4E13280E80E00FE
:103B8000C0E90333C0E905C3C361FEF717FF00288E
:103B900008BF80BDBDE88040FCF79CBEFEE700008A
:103BA000FEE7000070B540F60044C4F202044FF690
:103BB0000045204608210022CFF6FF750026FDF7BC
:103BC000B7F9C820FDF7CAF8204608210122FDF701
:103BD000AFF9AE20002100F06DFE0020002100F0C2
:103BE00069FE1020002100F065FE4020002100F059
:103BF00061FE8120002100F05DFECF20002100F059
:103C000059FEA120002100F055FEC820002100F03F
:103C100051FEA620002100F04DFEA820002100F05A
:103C200049FE3F20002100F045FED320002100F096
:103C300041FE0020002100F03DFED520002100F0D3
:103C400039FE8020002100F035FED920002100F04F
:103C500031FEF120002100F02DFEDA20002100F0DD
:103C600029FE1220002100F025FEDB20002100F0BB
:103C700021FE4020002100F01DFE2020002100F048
:103C800019FE0220002100F015FE8D20002100F019
:103C900011FE1420002100F00DFEA420002100F0F0
:103CA00009FEA620002100F005FE40F23110C2F20C
:103CB00000002946421811F5807182F8006482F8EC
:103CC000086482F8106482F8186482F8206482F82C
:103CD000286482F8306482F8386482F8406482F89C
:103CE000486482F8506482F8586482F8606482F80C
:103CF000686482F8706482F8786482F8806482F87C
:103D0000886482F8906482F8986482F8A06482F8EB
:103D1000A86482F8B06482F8B86482F8C06482F85B
:103D2000C86482F8D06482F8D86482F8E06482F8CB
:103D3000E86482F8F06482F8F864BBD100212A4676
:103D4000831812F5807283F8011483F8091483F83C
:103D5000111483F8191483F8211483F8291483F8B3
:103D6000311483F8391483F8411483F8491483F823
:103D7000511483F8591483F8611483F8691483F893
:103D8000711483F8791483F8811483F8891483F803
:103D9000911483F8991483F8A11483F8A91483F873
:103DA000B11483F8B91483F8C11483F8C91483F8E3
:103DB000D11483F8D91483F8E11483F8E91483F853
:103DC000F11483F8F914BBD100212A46831812F5A7
:103DD000807283F8021483F80A1483F8121483F8AB
:103DE0001A1483F8221483F82A1483F8321483F8FF
:103DF0003A1483F8421483F84A1483F8521483F86F
:103E00005A1483F8621483F86A1483F8721483F8DE
:103E10007A1483F8821483F88A1483F8921483F84E
:103E20009A1483F8A21483F8AA1483F8B21483F8BE
:103E3000BA1483F8C21483F8CA1483F8D21483F82E
:103E4000DA1483F8E21483F8EA1483F8F21483F89E
:103E5000FA14BBD100212A46831812F5807283F828
:103E6000031483F80B1483F8131483F81B1483F8DA
:103E7000231483F82B1483F8331483F83B1483F84A
:103E8000431483F84B1483F8531483F85B1483F8BA
:103E9000631483F86B1483F8731483F87B1483F82A
:103EA000831483F88B1483F8931483F89B1483F89A
:103EB000A31483F8AB1483F8B31483F8BB1483F80A
:103EC000C31483F8CB1483F8D31483F8DB1483F87A
:103ED000E31483F8EB1483F8F31483F8FB14BBD1D9
:103EE00000212A46831812F5807283F8041483F89F
:103EF0000C1483F8141483F81C1483F8241483F826
:103F00002C1483F8341483F83C1483F8441483F895
:103F10004C1483F8541483F85C1483F8641483F805
:103F20006C1483F8741483F87C1483F8841483F875
:103F30008C1483F8941483F89C1483F8A41483F8E5
:103F4000AC1483F8B41483F8BC1483F8C41483F855
:103F5000CC1483F8D41483F8DC1483F8E41483F8C5
:103F6000EC1483F8F41483F8FC14BBD100212A4626
:103F7000831812F5807283F8051483F80D1483F802
:103F8000151483F81D1483F8251483F82D1483F871
:103F9000351483F83D1483F8451483F84D1483F8E1
:103FA000551483F85D1483F8651483F86D1483F851
:103FB000751483F87D1483F8851483F88D1483F8C1
:103FC000951483F89D1483F8A51483F8AD1483F831
:103FD000B51483F8BD1483F8C51483F8CD1483F8A1
:103FE000D51483F8DD1483F8E51483F8ED1483F811
:103FF000F51483F8FD14BBD100212A46831812F56D
:10400000807283F8061483F80E1483F8161483F86C
:104010001E1483F8261483F82E1483F8361483F8BC
:104020003E1483F8461483F84E1483F8561483F82C
:104030005E1483F8661483F86E1483F8761483F89C
:104040007E1483F8861483F88E1483F8961483F80C
:104050009E1483F8A61483F8AE1483F8B61483F87C
:10406000BE1483F8C61483F8CE1483F8D61483F8EC
:10407000DE1483F8E61483F8EE1483F8F61483F85C
:10408000FE14BBD1002100BF421915F5807582F8DE
:10409000071482F80F1482F8171482F81F1482F89C
:1040A000271482F82F1482F8371482F83F1482F80C
:1040B000471482F84F1482F8571482F85F1482F87C
:1040C000671482F86F1482F8771482F87F1482F8EC
:1040D000871482F88F1482F8971482F89F1482F85C
:1040E000A71482F8AF1482F8B71482F8BF1482F8CC
:1040F000C71482F8CF1482F8D71482F8DF1482F83C
:10410000E71482F8EF1482F8F71482F8FF14BBD199
:1041100000F006F8AF200021BDE8704000F0CABBF7
:1041200070B5B020002100F0C5FB0020002100F098
:10413000C1FB1020002100F0BDFB40F231146FF0F4
:104140000705C2F2000400BF6019007A012100F0E7
:10415000B1FB0835B5F57E7FF6D1B120002100F026
:10416000A9FB0020002100F0A5FB1020002100F099
:10417000A1FBE51F802600BF15F8080F012100F004
:1041800099FB013EF8D1B220002100F093FB002002
:10419000002100F08FFB1020002100F08BFBA51FF9
:1041A000802600BF15F8080F012100F083FB013EB7
:1041B000F8D1B320002100F07DFB0020002100F0A9
:1041C00079FB1020002100F075FB651F802600BFE1
:1041D00015F8080F012100F06DFB013EF8D1B42065
:1041E000002100F067FB0020002100F063FB10209D
:1041F000002100F05FFB251F802600BF15F8080F87
:10420000012100F057FB013EF8D1B520002100F05C
:1042100051FB0020002100F04DFB1020002100F098
:1042200049FBE51E802600BF15F8080F012100F0AC
:1042300041FB013EF8D1B620002100F03BFB0020FD
:10424000002100F037FB1020002100F033FBA51EF9
:10425000802600BF15F8080F012100F02BFB013E5E
:10426000F8D1B720002100F025FB0020002100F04C
:1042700021FB1020002100F01DFB013C802500BF28
:1042800014F8080F012100F015FB013DF8D170BDB5
:104290002DE9F04F91B01A9D082B844607461090E7
:1042A0000D9340F0FD80203A002DD3B200F0EA815A
:1042B00001F00702012000FA02F20E924A1C0F924E
:1042C00002F0070200FA02F201F1020A0D920AF06E
:1042D000070200FA02F2CF1C0C9207F0070200FA64
:1042E00002F201F1040E0B920EF0070201F1050833
:1042F00000FA02F208F0070501F106090A9200FA35
:1043000005F209F00705CC1D00FA05FB04F00705CE
:1043100000FA05F646F2DC6503EB4300C0F6000543
:1043200005EB400010900F980992C3B20E985FFA07
:104330008EF2C04307900D984FEAD20EC04306900C
:104340000C985FFA88F2C04305900B984FEAD208A8
:10435000C04304900A985FFA89F2C0430390099819
:104360005FFA8AF5C043FFB24FEAD209E2B2029087
:104370006FEA0B00C908DB08ED08FF084FEAD20A14
:10438000CDF820B0CDE90060F0434FF0000B0F9066
:104390000EE000BF14F80A200F9802400BF1010B49
:1043A000BBF1060F0CF1010C04F80A2000F0548256
:1043B00010985FFA8CF410F80B6040F23110C2F2E2
:1043C0000000F20700EBC40432D1625C079802409F
:1043D0006254B20732D5E25C0D980243E254720790
:1043E00032D5625D0C9802436255320732D5E25DE8
:1043F0000B980243E255F20632D514F80E200A98C3
:10440000024304F80E20B20632D514F808200998A9
:10441000024304F80820720632D514F809200898DF
:10442000024304F8092072B2B2F1FF3FB2DC32E07D
:10443000625C0E9802436254B207CCD4E25C0698E8
:104440000240E2547207CCD4625D05980240625586
:104450003207CCD4E25D04980240E255F206CCD497
:1044600014F80E200398024004F80E20B206CCD4B3
:1044700014F808200298024004F808207206CCD4F0
:1044800014F809200198024004F8092072B2B2F130
:10449000FF3F3FF77FAF14F80A20009802437DE703
:1044A000DC08012758085E0718BF07EBD30404FB9C
:1044B00000F7FEB2002E0F9000F0CE81203A002DC2
:1044C000D3B200F0E2800D980C93182800F2C4815A
:1044D000012202FA00F041F20002C0F20112104281
:1044E00000F0BA810C9B46F6041203EB4300C0F6C1
:1044F000000202EB800B46F67850C0F6000000EB9D
:1045000003100B900D984FF0000A67464FF0010E14
:10451000A6E000BF0B9800EB0A0540F23112F8B29A
:10452000CCB2C2F20002E40802EBC00901F00708B5
:1045300019F8040095F900500EFA08F640EA060250
:10454000EB0708BF20EA0602481C09F80420C2B2A3
:10455000D20800F0070019F802300EFA00F043EA22
:104560000004AE0758BF23EA0004881C09F8024083
:10457000C2B2D20800F0070019F802300EFA00F0BB
:1045800043EA00046E0758BF23EA0004C81C09F878
:104590000240C2B2D20800F0070019F802300EFA49
:1045A00000F043EA00042E0758BF23EA0004081D68
:1045B00009F80240C2B2D20800F0070019F8023030
:1045C0000EFA00F043EA0004EE0658BF23EA0004A6
:1045D000481D09F80240C2B2D20800F0070019F8DD
:1045E00002300EFA00F043EA0004AE0658BF23EA98
:1045F0000004881D09F80240C2B2D20800F007008A
:1046000019F802300EFA00F043EA00046E0658BFB3
:1046100023EA0004C81D09F80240C2B2D20800F023
:10462000070019F802300EFA00F023EA00040137FF
:10463000002D48BF43EA000409F80240F8B20F9A7F
:10464000A0EB0C009042109804BF074608310E9E64
:104650000D980AF1010A013E0BF1010B00F0FC80FC
:1046600010280E963FF456AF0C285D463FF455AF28
:104670000C9847F2683200EBC000C0F6000202EB73
:10468000800048E7062704200F9046F2DC6203EB27
:104690004300C0F6000246F678550B9002EB400846
:1046A000F8B2C0F600050E900C9305EB03100D9BBD
:1046B00000224FF0010E4FF000090A900AE000BFFF
:1046C00009F101090E985FFA89F2824208F10108A6
:1046D00080F0C280082B45461CD00C2B12D0102B2A
:1046E0000CD0182B40F0B8800C9800EBC00547F2B6
:1046F0006830C0F6000000EB85050AE00A988518CE
:1047000008E000BF0B9846F60414C0F6000404EB62
:104710008005154440F2311095F900205FFA8CF5C0
:10472000CFB2C2F20000FF0800EBC50B01F0070A90
:104730001BF807500EFA0AF4D00725EA040601F127
:10474000010008BF45EA0406C4B20BF80760E4089C
:1047500000F007001BF804500EFA00F025EA0006EE
:10476000970758BF45EA0006881C0BF80460C4B2DE
:10477000E40800F007001BF804500EFA00F025EAE8
:104780000006570758BF45EA0006C81C0BF804602E
:10479000C4B2E40800F007001BF804500EFA00F061
:1047A00025EA0006170758BF45EA0006081D0BF862
:1047B0000460C4B2E40800F007001BF804500EFACD
:1047C00000F025EA0006D70658BF45EA0006481D56
:1047D0000BF80460C4B2E40800F007001BF80450B2
:1047E0000EFA00F025EA0006970658BF45EA0006D3
:1047F000881D0BF80460C4B2E40800F007001BF841
:1048000004500EFA00F025EA0006570658BF45EAA4
:104810000006C81D0BF80460C4B2E40800F00700ED
:104820001BF804500EFA00F045EA0006002A48BFC3
:1048300025EA0006082B0CF1010C0BF804603FF48C
:104840003FAF109A5FFA8CF00F9C801AA04204BF11
:104850009446083134E700BF11B0BDE8F08F000086
:104860002DE9F04381B0994613780D46A3F120015C
:10487000C9B25E291BD8DDF8208006464FEA5907E9
:10488000541EB9F1080F08BF062700BFF0B2DAB214
:1048900029464B46CDF80080FFF7FAFCA3783E444A
:1048A000A3F12000C0B25F2804F10104EED301B0EF
:1048B000BDE8F08370B540F60005C4F2020505F5C9
:1048C00080640A460646002920464FF0040118BFBE
:1048D0000122FCF72DFB28464FF400610022FCF773
:1048E00027FB28464FF480610022FCF721FBF209E8
:1048F00028464FF48051FCF71BFB00BF00BF00BFF0
:1049000000BF28464FF48061012200BFFCF710FB76
:1049100000BF00BF00BF00BF28464FF480610022E7
:1049200000BFFCF705FBC6F3801228464FF4805108
:10493000FCF7FEFA00BF00BF00BF00BF28464FF4DF
:104940008061012200BFFCF7F3FA00BF00BF00BF87
:1049500000BF28464FF48061002200BFFCF7E8FA50
:10496000C6F3401228464FF48051FCF7E1FA00BF2D
:1049700000BF00BF00BF28464FF48061012200BF86
:10498000FCF7D6FA00BF00BF00BF00BF28464FF4B7
:104990008061002200BFFCF7CBFAC6F30012284664
:1049A0004FF48051FCF7C4FA00BF00BF00BF00BF46
:1049B00028464FF48061012200BFFCF7B9FA00BF1E
:1049C00000BF00BF00BF28464FF48061002200BF37
:1049D000FCF7AEFAC6F3C00228464FF48051FCF74C
:1049E000A7FA00BF00BF00BF00BF28464FF4806198
:1049F000012200BFFCF79CFA00BF00BF00BF00BF50
:104A000028464FF48061002200BFFCF791FAC6F3FC
:104A1000800228464FF48051FCF78AFA00BF00BF9D
:104A200000BF00BF28464FF48061012200BFFCF7A1
:104A30007FFA00BF00BF00BF00BF28464FF480616F
:104A4000002200BFFCF774FAC6F3400228464FF478
:104A50008051FCF76DFA00BF00BF00BF00BF2846C1
:104A60004FF48061012200BFFCF762FA00BF00BF73
:104A700000BF00BF28464FF48061002200BFFCF752
:104A800057FA06F0010228464FF48051FCF750FA1D
:104A900000BF00BF00BF00BF28464FF48061012265
:104AA00000BFFCF745FA00BF00BF00BF00BF2846AB
:104AB0004FF40061012200BFFCF73AFA20460421BE
:104AC0000122BDE87040FCF733BA000070470000D7
:104AD00070470000FCF738BA70B592B006AC2046BB
:104AE0003021FBF7A5FB002543F640000595CDE9F5
:104AF0000355CDE901550095C4F202000168022674
:104B000041F080510160006800F0805000900098F2
:104B100047F200000095C4F20000016841F48041B2
:104B200001600068A82100F48040009000980120F6
:104B300006904FF4803007904FF480000D900420D1
:104B40000E90119020460C96CDE90F16FCF7C4FB91
:104B500010B172B6FEE700BF0F20CDE901064FF499
:104B6000A05004904FF48050059001A805210395B2
:104B7000FCF7A2FA10B172B6FEE700BF12B070BD2A
:104B80004EF68850CEF20000016841F470010160D9
:104B90007047000040F68C00C2F20000FDF772B9C9
:104BA00040F26C70C2F20000FDF76CB9B0B540F68F
:104BB000FF3E0568C4F2000E40F2004C7045C4F29E
:104BC000010C25DCB0F1804F2FD040F20043C4F23D
:104BD0000003984229D040F60003C4F20003984233
:104BE00023D041F6FF73C4F20003984228DC7045DD
:104BF0003ADCB0F1804F5BD040F20043C4F20003D6
:104C0000984255D040F60003C4F200034EE000BFC6
:104C100040F60043C4F20003984206D0604504D039
:104C20000023C4F201039842DBD14B6825F07002E7
:104C300043EA020541F6FF73C4F200039842D6DD51
:104C400043F6FF73C4F2010398421FDC42F20003F3
:104C5000C4F2000398422BD00023C4F2010398420F
:104C600026D0604524D028E040F60043C4F200037B
:104C700098421DD041F60003C4F20003984217D0B9
:104C800041F60043C4F2000310E000BF44F2000309
:104C9000C4F2010398420BD044F60003C4F20103AE
:104CA000984205D044F20043C4F20103984204D173
:104CB000CB6825F4407243EA02050A688C684B69A8
:104CC000C46240F480648262644504BF0969016380
:104CD000026825F0800142F00402194302600122BB
:104CE00042610160B0BD0000806B0021C185FDF70D
:104CF00099BB0000806B01684A6990F84130212B14
:104D00002DD112F080022AD00021C184016851E81F
:104D1000031F026821F0C00142E80313DBB1016800
:104D200051E8031F026821F0C00142E8031393B168
:104D3000016851E8031F026821F0C00142E8031333
:104D40004BB1016851E8031F026821F0C00142E83D
:104D50000313002BDAD1202180F841100168496942
:104D600090F84220222A40F07D8011F0400179D055
:104D70000021C185016851E8031F026821F4907188
:104D800042E80313BBB3016851E8031F026821F432
:104D9000907142E8031373B3016851E8031F02687E
:104DA00021F4907142E803132BB3016851E8031F0B
:104DB000026821F4907142E80313002BDAD11AE063
:104DC000016851E8051F026821F0010142E805135E
:104DD000DBB1016851E8051F026821F0010142E8DA
:104DE000051393B1016851E8051F026821F0010124
:104DF00042E805134BB1016851E8051F026821F034
:104E0000010142E80513002BDAD1016B012924D1FD
:104E1000016851E8031F026821F0100142E8031302
:104E2000DBB1016851E8031F026821F0100142E87C
:104E3000031393B1016851E8031F026821F01001C8
:104E400042E803134BB1016851E8031F026821F0E7
:104E5000100142E80313002BDAD1202180F8421020
:104E600000210163416C41F010014164FDF7DABAA1
:104E70000168806B0968C90500F19F800021C18528
:104E8000016851E8031F026821F4807142E80313AE
:104E9000E3B1016851E8031F026821F4807142E820
:104EA00003139BB1016851E8031F026821F480716C
:104EB00042E8031353B1016851E8031F026821F46B
:104EC000807142E80313002BDAD100BF016851E87A
:104ED000051F026821F0010142E80513BBB3016818
:104EE00051E8051F026821F0010142E8051373B380
:104EF000016851E8051F026821F0010142E805132D
:104F00002BB3016851E8051F026821F0010142E856
:104F10000513002BDAD11AE0016851E8051F026879
:104F200021F0400142E80513DBB1016851E8051F9B
:104F3000026821F0400142E8051393B1016851E88D
:104F4000051F026821F0400142E805134BB10168DA
:104F500051E8051F026821F0400142E80513002BCB
:104F6000DAD1202180F84210016B012925D100BF40
:104F7000016851E8031F026821F0100142E80313A1
:104F8000DBB1016851E8031F026821F0100142E81B
:104F9000031393B1016851E8031F026821F0100167
:104FA00042E803134BB1016851E8031F026821F086
:104FB000100142E80313002BDAD100214163016B99
:104FC000012918BFFDF7C8BE818DFDF729BA000081
:104FD000806B01214163016B012918BFFDF7DCBE25
:104FE000818D4908FDF71CBA81B090F84210222942
:104FF00021D183680246B3F5805F09D152F8281F9A
:1050000052F8183C002B63D003685B680AE000BFCD
:1050100052F8281F13B90369002BF5D003685B68A9
:1050200003F07F030B70116801311160C18D0139EC
:105030000A04C18502D001B0704700BF0168CA6888
:1050400022F02002CA60CA6822F48072CA604A69EB
:1050500022F001024A61202180F8421000214163C0
:10506000026B012A3CD10163016851E8031F026809
:1050700021F0100142E80313DBB1016851E8031F7E
:10508000026821F0100142E8031393B1016851E86E
:10509000031F026821F0100142E803134BB10168BD
:1050A00051E8031F026821F0100142E80313002BAE
:1050B000DAD101680A68D20606D5002200920A6891
:1050C0000092496800910099818D01B0FDF7A8B95F
:1050D000026852686FF35F2221F8022B8162A5E714
:1050E00001B0FDF739BE0000B0B50446006804F118
:1050F00008030ECB0569194325F440552A43026184
:105100006269E3691143C268194349F20C639A4327
:105110001143C1604169A26921F4407141F2004329
:10512000114340F48062C4F201039A42416103D109
:10513000FCF788F802E000BFFCF770F8E1694FF671
:105140009C7563681922C0F6FF75B1F5004FA0FB8E
:1051500002011FD15A00DB0FFBF732F848F21F5152
:10516000C5F2EB11A0FB01235A0905F1805302FBA4
:105170000300322303EBC000A0FB01014FF4F870E1
:1051800000EA111000EB0210C1F34211084421683B
:105190008860B0BD9A009B0FFBF712F848F21F51D0
:1051A000C5F2EB11A0FB01235A0902FB05003223D3
:1051B00003EB0010A0FB0101F02000EA511000EB0E
:1051C0000210C1F34311084421688860B0BD00009B
:1051D00040F6D400C2F20000FDF726B9FEE7000059
:1051E0002DE9F04F81B02DED068B40F2D40040F256
:1051F000E006C2F20000C2F2000640F2240B90ED7D
:1052000000AA96ED050AC2F2000B96ED082A9BED66
:10521000071A3AEE400AB6EE008A30EE026A21EE34
:10522000084AB4EE446A86ED060A9BED053AF1EEB3
:1052300010FA86ED086AC4BF86ED084AB0EE446AEB
:105240009BED082A40F2C00022EE085AB4EE456AEF
:10525000F1EE10FABCBF86ED085AB0EE456A96ED45
:10526000037AD6ED071A26EE076A9BED067A70EEF2
:10527000611AC2F20000D6ED040A27EE217AD0EDC1
:10528000001A20EE033A60EEE10AF4EE440A33EE2F
:10529000063AF1EE10FAC8BFF0EE440AF4EE450A01
:1052A00033EE073AF1EE10FAB8BFF0EE450A33EEEE
:1052B000609AB4EE419AF1EE10FAC8BFB0EE419A8E
:1052C000B4EE429AF1EE10FAB8BFB0EE429A86ED13
:1052D000099A86ED070A00F019F90146BBF80000AB
:1052E000E1B100EE100A9FED7E1AB8EE400A20EE02
:1052F000010A3078002846D096ED121AB4EE401A12
:10530000F1EE10FA5ADA96ED132AB5EE402AF1EED4
:1053100010FA53D131EE080A53E000BFFBF736F91B
:1053200096ED050A80463AEE400A10EE100A20F08B
:1053300000408946FBF737F99FED630B824654EC3A
:10534000105B2A4623460F46FBF705F99FED600BDD
:1053500000281CBF3C46554653EC102B28462146DE
:10536000FBF78AF89FED5C0B53EC102BFBF712F860
:1053700042464B46FAF767FFFBF728F900EE100AA2
:1053800030780028B8D19FED570A0020C6E9060002
:10539000C6E90800C6E90A00C6E90C00C6E90E0025
:1053A000C6E91000B064F0EE400AF064BDEC068B74
:1053B00001B0BDE8F04F00F039BB00BF4FF07E50A8
:1053C000F06440F6681039EE001AC2F2000080ED79
:1053D000001A40F66C1086ED120A30EE490AC2F24D
:1053E000000080ED000A40F28C00C2F2000090ED57
:1053F000002A40F29000C2F2000090ED003A96EDD3
:105400000C4A31EE421A9BED017A31EE446ADBED33
:10541000020A27EE066A34EE044A96ED0E7A86ED0D
:105420000A1A96ED012A61EE200A31EE441A31EE95
:10543000071A36EE206A22EE011A96ED102A96ED32
:105440000D5A31EE061A30EE430ADBED031ADBED9E
:10545000042A32EE011A86ED101A30EE451A20EEBB
:10546000222A21EE811A31EE021A35EE052A96ED36
:105470000F4A86ED0B0A96ED023A30EE420A30EE04
:10548000040A23EE000A30EE010A96ED111A06F125
:10549000400006F1440131EE000A86ED110AFDF7E5
:1054A000EDFF96ED100AD6ED110A00F0BFFA06F1F5
:1054B00028030FCB06F1300C8CE80F00BDEC068BF7
:1054C00001B0BDE8F08F00BF0000000000000C40FC
:1054D0000000000000000CC0000000000000494077
:1054E0009A99193F0000000080B582B00DF10702C3
:1054F0009820DD210123FDF71FFD9DF8070040F2F4
:105500003011C2F20001087002B080BD40F2080004
:10551000C2F2000000787047F0B540F29C01C2F280
:1055200000010A78A2B10A78012A1DD1512800F0A1
:10553000E380522800F0D880532840F04381487817
:105540005322084480F828200220022238E100BFBC
:10555000552840F0378148785522084480F82820A3
:10556000012001222CE100BF0A78022A58D14A7892
:10557000531CDCB20A440B2C4B7082F8280040F01C
:10558000218191F8280091F8293091F82A2091F88A
:105590002B401844104491F82CE0231891F82D006A
:1055A000734491F82EC0C51891F82F30654491F8D6
:1055B00030601D4491F8317035443D4491F83260BB
:1055C000EDB2B54240F0FA8042EA042212B200EE97
:1055D000102A9FED7D1AB8EEC00A9FED7E2A20EEBC
:1055E000010A4EEA002020EE020A00B281ED010A13
:1055F00000EE100AB8EEC00A20EE010A4CEA0320C1
:1056000020EE020A00B281ED020A00EE100AB8EEA6
:10561000C00A20EE010A20EE020A81ED030ACDE065
:105620000A78032A70D14A78531CDFB20A440B2F40
:105630004B7082F8280040F0C58091F8280091F85E
:10564000293091F82A2091F82B401844104491F801
:105650002C30271891F82D001F4491F82EC0C51941
:1056600091F82FE0654491F83060754491F83170FD
:1056700035443D4491F83260EDB2B54240F09E8031
:1056800042EA042212B200EE102A9FED4F1AB8EE41
:10569000C00A20EE010AB3EE002A9FED4D3A20EE3B
:1056A000020A43EA002020EE030A00B281ED040A58
:1056B00000EE100AB8EEC00A20EE010A20EE020A3F
:1056C0004CEA0E2020EE030A00B281ED050A00EE3E
:1056D000100AB8EEC00A20EE010A20EE020A20EEFF
:1056E000030A81ED060A69E048785222084480F8EE
:1056F00028200222042063E048785122084480F8E0
:105700002820022203205BE00A78042A5AD14A7832
:10571000531CDFB20A440B2F4B7082F8280018BFCD
:10572000F0BD91F8280091F8293091F82A2091F8DD
:105730002B401844104491F82CE0231891F82D00C8
:10574000734491F82EC0C51891F82F30654491F834
:1057500030601D4491F8317035443D4491F8326019
:10576000EDB2B5422AD142EA042212B200EE102A6A
:105770009FED151AB8EEC00A9FED142A20EE010A1B
:105780004EEA002020EE020A00B281ED070A00EE88
:10579000100AB8EEC00A20EE010A4CEA032020EEFF
:1057A000020A00B281ED080A00EE100AB8EEC00A43
:1057B00020EE010A20EE020A81ED090A00200022F3
:1057C00008704A70F0BD00BF000000380000FA44C5
:1057D000CDCC1C410000344380B540F60040C4F2FB
:1057E00002004FF48071FBF79DFB40F66411C2F29A
:1057F00000010A780243120606D0002808BF80BDC7
:105800000020087080BD00BF012008700520FBF754
:10581000A5FA40F2E000C2F200000178B1FA81F18D
:105820004909017080BD000086B0FBF79BFBFFF7C4
:1058300053F9FDF777FEFDF751FEFDF7F9FFFEF78F
:1058400095F8FDF78DFFFDF7C1FFFEF72FF9FEF785
:1058500069F9FDF72FFFFDF707FFFDF753FFFEF78F
:105860007FF940F20040C4F20200022101224FF011
:10587000010AFBF75DFBFEF795F900F0ABF840F28B
:10588000500940F6D400C2F20009C2F200004946B5
:105890000122FDF737FAFDF7BBFD40F2D80809F108
:1058A000080BC2F2000803E0FFF71EFEFFF794FFAB
:1058B00000F088F9FBF742FBD9F80410401A65287C
:1058C000F2D3FBF73BFBC9F8040040F20C0040F2B6
:1058D0000801C2F20000C2F2000100680E78FAF777
:1058E00062FE41EC100B58462CA132468DED000BA8
:1058F00000F066FA002010215A461023CDF800A0CF
:10590000FEF7AEFF40F2D400C2F200000068FAF7E2
:105910004AFE024640F2D000C2F2000006780B4672
:10592000584621A1009600F04BFA98F8020098F82A
:10593000002098F8013098F8031098F8064098F87D
:10594000075098F8046098F805708DE8C300584631
:1059500018A10494059500F033FA002018215A4646
:105960001023CDF800A0FEF77BFF40F2A800C2F2A2
:1059700000000068FAF717FE02460B46584613A1CE
:1059800000F01EFA002028215A461023CDF800A06E
:10599000FEF766FFFEF7C4FB86E700BF2564202004
:1059A000252E316620000000252E3166202564203A
:1059B00000000000256425642564256425642564B1
:1059C000256425642020202000000000252E32665A
:1059D00020200000B0B540F68C00C2F20000FCF7B9
:1059E00015F840F2FC70C2F200000C21FCF736FC06
:1059F00040F64400C2F200000821FCF72FFC40F200
:105A00002474C2F2000420463C21FCF7DBF940F28A
:105A1000B475C2F2000528463C21FCF7D3F9206892
:105A20000021416228684162B0BD000010B52DED33
:105A3000048B9FED601A40F27800B4EE410AB0EE9C
:105A4000608AB0EE409AF1EE10FAC2F2000006DC75
:105A50009FED590AB4EE409AF1EE10FA0ADA9FED82
:105A6000560A56A1B4EE409AF1EE10FAB8BF0431CE
:105A70000968C161B4EE418AF1EE10FA04DCB4EEBB
:105A8000408AF1EE10FA08DA4CA1B4EE408AF1EE49
:105A900010FAB8BF04310968016240F60004B5EE9F
:105AA000409AC4F20204F1EE10FA20464FF48071DD
:105AB00016DD0122FBF73CFA204680210022FBF78D
:105AC00037FA40F2FC70C2F200000068BCEEC90A6E
:105AD00080ED100AB5EE408AF1EE10FA1DDD43E0CC
